{
  "contractName": "FlightSuretyData",
  "abi": [
    {
      "constant": true,
      "inputs": [
        {
          "name": "",
          "type": "address"
        }
      ],
      "name": "pendingPayments",
      "outputs": [
        {
          "name": "",
          "type": "uint256"
        }
      ],
      "payable": false,
      "stateMutability": "view",
      "type": "function"
    },
    {
      "inputs": [
        {
          "name": "firstAirlineName",
          "type": "string"
        },
        {
          "name": "firstAirlineAddress",
          "type": "address"
        }
      ],
      "payable": false,
      "stateMutability": "nonpayable",
      "type": "constructor"
    },
    {
      "payable": true,
      "stateMutability": "payable",
      "type": "fallback"
    },
    {
      "anonymous": false,
      "inputs": [
        {
          "indexed": false,
          "name": "name",
          "type": "string"
        },
        {
          "indexed": false,
          "name": "addr",
          "type": "address"
        }
      ],
      "name": "AirlinePaid",
      "type": "event"
    },
    {
      "anonymous": false,
      "inputs": [
        {
          "indexed": false,
          "name": "name",
          "type": "string"
        },
        {
          "indexed": false,
          "name": "addr",
          "type": "address"
        }
      ],
      "name": "AirlineRegistered",
      "type": "event"
    },
    {
      "anonymous": false,
      "inputs": [
        {
          "indexed": false,
          "name": "passenger",
          "type": "address"
        },
        {
          "indexed": false,
          "name": "amount",
          "type": "uint256"
        }
      ],
      "name": "InsureeCredited",
      "type": "event"
    },
    {
      "anonymous": false,
      "inputs": [
        {
          "indexed": false,
          "name": "airline",
          "type": "address"
        },
        {
          "indexed": false,
          "name": "flight",
          "type": "string"
        },
        {
          "indexed": false,
          "name": "timestamp",
          "type": "uint256"
        },
        {
          "indexed": false,
          "name": "passenger",
          "type": "address"
        },
        {
          "indexed": false,
          "name": "amount",
          "type": "uint256"
        },
        {
          "indexed": false,
          "name": "multiplier",
          "type": "uint256"
        }
      ],
      "name": "InsuranceBought",
      "type": "event"
    },
    {
      "anonymous": false,
      "inputs": [
        {
          "indexed": false,
          "name": "airline",
          "type": "address"
        },
        {
          "indexed": false,
          "name": "flight",
          "type": "string"
        },
        {
          "indexed": false,
          "name": "timestamp",
          "type": "uint256"
        },
        {
          "indexed": false,
          "name": "statusCode",
          "type": "uint8"
        }
      ],
      "name": "FlightStatusUpdated",
      "type": "event"
    },
    {
      "anonymous": false,
      "inputs": [
        {
          "indexed": false,
          "name": "passenger",
          "type": "address"
        },
        {
          "indexed": false,
          "name": "amount",
          "type": "uint256"
        }
      ],
      "name": "AccountWithdrawn",
      "type": "event"
    },
    {
      "anonymous": false,
      "inputs": [
        {
          "indexed": false,
          "name": "airline",
          "type": "address"
        },
        {
          "indexed": false,
          "name": "flight",
          "type": "string"
        },
        {
          "indexed": false,
          "name": "from",
          "type": "string"
        },
        {
          "indexed": false,
          "name": "to",
          "type": "string"
        },
        {
          "indexed": false,
          "name": "timestamp",
          "type": "uint256"
        }
      ],
      "name": "FlightRegistered",
      "type": "event"
    },
    {
      "constant": false,
      "inputs": [
        {
          "name": "contractAddress",
          "type": "address"
        }
      ],
      "name": "deauthorizeContract",
      "outputs": [],
      "payable": false,
      "stateMutability": "nonpayable",
      "type": "function"
    },
    {
      "constant": false,
      "inputs": [
        {
          "name": "contractAddress",
          "type": "address"
        }
      ],
      "name": "authorizeContract",
      "outputs": [],
      "payable": false,
      "stateMutability": "nonpayable",
      "type": "function"
    },
    {
      "constant": true,
      "inputs": [],
      "name": "isOperational",
      "outputs": [
        {
          "name": "",
          "type": "bool"
        }
      ],
      "payable": false,
      "stateMutability": "view",
      "type": "function"
    },
    {
      "constant": true,
      "inputs": [
        {
          "name": "airline",
          "type": "address"
        }
      ],
      "name": "getAirlineName",
      "outputs": [
        {
          "name": "",
          "type": "string"
        }
      ],
      "payable": false,
      "stateMutability": "view",
      "type": "function"
    },
    {
      "constant": true,
      "inputs": [
        {
          "name": "airline",
          "type": "address"
        }
      ],
      "name": "isRegisteredAirline",
      "outputs": [
        {
          "name": "",
          "type": "bool"
        }
      ],
      "payable": false,
      "stateMutability": "view",
      "type": "function"
    },
    {
      "constant": true,
      "inputs": [
        {
          "name": "airline",
          "type": "address"
        }
      ],
      "name": "isPaidAirline",
      "outputs": [
        {
          "name": "",
          "type": "bool"
        }
      ],
      "payable": false,
      "stateMutability": "view",
      "type": "function"
    },
    {
      "constant": true,
      "inputs": [
        {
          "name": "airline",
          "type": "address"
        },
        {
          "name": "flight",
          "type": "string"
        },
        {
          "name": "timestamp",
          "type": "uint256"
        }
      ],
      "name": "getFlightStatusCode",
      "outputs": [
        {
          "name": "",
          "type": "uint8"
        }
      ],
      "payable": false,
      "stateMutability": "view",
      "type": "function"
    },
    {
      "constant": true,
      "inputs": [],
      "name": "getRegisteredAirlines",
      "outputs": [
        {
          "name": "",
          "type": "address[]"
        }
      ],
      "payable": false,
      "stateMutability": "view",
      "type": "function"
    },
    {
      "constant": true,
      "inputs": [
        {
          "name": "key",
          "type": "bytes32"
        },
        {
          "name": "passenger",
          "type": "address"
        }
      ],
      "name": "isInsured",
      "outputs": [
        {
          "name": "",
          "type": "bool"
        }
      ],
      "payable": false,
      "stateMutability": "view",
      "type": "function"
    },
    {
      "constant": true,
      "inputs": [
        {
          "name": "key",
          "type": "bytes32"
        }
      ],
      "name": "isRegisteredFlight",
      "outputs": [
        {
          "name": "",
          "type": "bool"
        }
      ],
      "payable": false,
      "stateMutability": "view",
      "type": "function"
    },
    {
      "constant": true,
      "inputs": [
        {
          "name": "passenger",
          "type": "address"
        }
      ],
      "name": "getPendingPaymentAmount",
      "outputs": [
        {
          "name": "",
          "type": "uint256"
        }
      ],
      "payable": false,
      "stateMutability": "view",
      "type": "function"
    },
    {
      "constant": false,
      "inputs": [
        {
          "name": "status",
          "type": "bool"
        }
      ],
      "name": "setOperatingStatus",
      "outputs": [],
      "payable": false,
      "stateMutability": "nonpayable",
      "type": "function"
    },
    {
      "constant": false,
      "inputs": [
        {
          "name": "name",
          "type": "string"
        },
        {
          "name": "addr",
          "type": "address"
        }
      ],
      "name": "registerAirline",
      "outputs": [
        {
          "name": "success",
          "type": "bool"
        }
      ],
      "payable": false,
      "stateMutability": "nonpayable",
      "type": "function"
    },
    {
      "constant": false,
      "inputs": [
        {
          "name": "addr",
          "type": "address"
        }
      ],
      "name": "payAirline",
      "outputs": [],
      "payable": false,
      "stateMutability": "nonpayable",
      "type": "function"
    },
    {
      "constant": false,
      "inputs": [
        {
          "name": "airline",
          "type": "address"
        },
        {
          "name": "flight",
          "type": "string"
        },
        {
          "name": "from",
          "type": "string"
        },
        {
          "name": "to",
          "type": "string"
        },
        {
          "name": "timestamp",
          "type": "uint256"
        },
        {
          "name": "key",
          "type": "bytes32"
        }
      ],
      "name": "registerFlight",
      "outputs": [],
      "payable": false,
      "stateMutability": "nonpayable",
      "type": "function"
    },
    {
      "constant": false,
      "inputs": [
        {
          "name": "key",
          "type": "bytes32"
        },
        {
          "name": "passenger",
          "type": "address"
        },
        {
          "name": "amount",
          "type": "uint256"
        },
        {
          "name": "multiplier",
          "type": "uint256"
        }
      ],
      "name": "purchase",
      "outputs": [],
      "payable": false,
      "stateMutability": "nonpayable",
      "type": "function"
    },
    {
      "constant": false,
      "inputs": [
        {
          "name": "flightKey",
          "type": "bytes32"
        },
        {
          "name": "statusCode",
          "type": "uint8"
        }
      ],
      "name": "processFlightStatus",
      "outputs": [],
      "payable": false,
      "stateMutability": "nonpayable",
      "type": "function"
    },
    {
      "constant": false,
      "inputs": [
        {
          "name": "passenger",
          "type": "address"
        }
      ],
      "name": "pay",
      "outputs": [],
      "payable": false,
      "stateMutability": "nonpayable",
      "type": "function"
    },
    {
      "constant": false,
      "inputs": [],
      "name": "fund",
      "outputs": [],
      "payable": true,
      "stateMutability": "payable",
      "type": "function"
    }
  ],
  "bytecode": "0x60806040524260005560018060146101000a81548160ff0219169083151502179055506000604051908082528060200260200182016040528015620000535781602001602082028038833980820191505090505b50600290805190602001906200006b929190620002b1565b5060006040519080825280602002602001820160405280156200009d5781602001602082028038833980820191505090505b5060059080519060200190620000b5929190620002b1565b506000604051908082528060200260200182016040528015620000e75781602001602082028038833980820191505090505b5060079080519060200190620000ff92919062000340565b503480156200010d57600080fd5b50604051620034c6380380620034c6833981018060405281019080805182019291906020018051906020019092919050505033600160006101000a81548173ffffffffffffffffffffffffffffffffffffffff021916908373ffffffffffffffffffffffffffffffffffffffff16021790555060606040519081016040528083815260200160001515815260200160011515815250600460008373ffffffffffffffffffffffffffffffffffffffff1673ffffffffffffffffffffffffffffffffffffffff1681526020019081526020016000206000820151816000019080519060200190620001ff92919062000398565b5060208201518160010160006101000a81548160ff02191690831515021790555060408201518160010160016101000a81548160ff02191690831515021790555090505060058190806001815401808255809150509060018203906000526020600020016000909192909190916101000a81548173ffffffffffffffffffffffffffffffffffffffff021916908373ffffffffffffffffffffffffffffffffffffffff160217905550505050620004b5565b8280548282559060005260206000209081019282156200032d579160200282015b828111156200032c5782518260006101000a81548173ffffffffffffffffffffffffffffffffffffffff021916908373ffffffffffffffffffffffffffffffffffffffff16021790555091602001919060010190620002d2565b5b5090506200033c91906200041f565b5090565b82805482825590600052602060002090810192821562000385579160200282015b828111156200038457825182906000191690559160200191906001019062000361565b5b50905062000394919062000465565b5090565b828054600181600116156101000203166002900490600052602060002090601f016020900481019282601f10620003db57805160ff19168380011785556200040c565b828001600101855582156200040c579182015b828111156200040b578251825591602001919060010190620003ee565b5b5090506200041b91906200048d565b5090565b6200046291905b808211156200045e57600081816101000a81549073ffffffffffffffffffffffffffffffffffffffff02191690555060010162000426565b5090565b90565b6200048a91905b80821115620004865760008160009055506001016200046c565b5090565b90565b620004b291905b80821115620004ae57600081600090555060010162000494565b5090565b90565b61300180620004c56000396000f300608060405260043610610112576000357c0100000000000000000000000000000000000000000000000000000000900463ffffffff16806308675ea61461011c5780630c11dedd146101bf5780630e2c4129146102025780630f9429b714610275578063110466ed146102b3578063351ba61b146102e25780633e3e1e0414610361578063524b6100146103c657806367561d93146104825780636e861c0e146104c55780637f38e5261461050857806395deca9d1461055f578063a283fd00146105a8578063a78d9799146105ff578063b60d42881461065a578063bf3c0d7a14610664578063c23bcf09146106bf578063cd905dff1461072b578063ee8bd1d01461075a578063f1494d76146107c3575b61011a610806565b005b34801561012857600080fd5b506101bd600480360381019080803573ffffffffffffffffffffffffffffffffffffffff1690602001909291908035906020019082018035906020019190919293919293908035906020019082018035906020019190919293919293908035906020019082018035906020019190919293919293908035906020019092919080356000191690602001909291905050506108aa565b005b3480156101cb57600080fd5b50610200600480360381019080803573ffffffffffffffffffffffffffffffffffffffff169060200190929190505050610fdf565b005b34801561020e57600080fd5b5061025b600480360381019080803590602001908201803590602001919091929391929390803573ffffffffffffffffffffffffffffffffffffffff169060200190929190505050611356565b604051808215151515815260200191505060405180910390f35b34801561028157600080fd5b506102b16004803603810190808035600019169060200190929190803560ff1690602001909291905050506117a9565b005b3480156102bf57600080fd5b506102e0600480360381019080803515159060200190929190505050611991565b005b3480156102ee57600080fd5b50610345600480360381019080803573ffffffffffffffffffffffffffffffffffffffff16906020019092919080359060200190820180359060200191909192939192939080359060200190929190505050611cf7565b604051808260ff1660ff16815260200191505060405180910390f35b34801561036d57600080fd5b506103c46004803603810190808035600019169060200190929190803573ffffffffffffffffffffffffffffffffffffffff1690602001909291908035906020019092919080359060200190929190505050611d6b565b005b3480156103d257600080fd5b50610407600480360381019080803573ffffffffffffffffffffffffffffffffffffffff169060200190929190505050611fc9565b6040518080602001828103825283818151815260200191508051906020019080838360005b8381101561044757808201518184015260208101905061042c565b50505050905090810190601f1680156104745780820380516001836020036101000a031916815260200191505b509250505060405180910390f35b34801561048e57600080fd5b506104c3600480360381019080803573ffffffffffffffffffffffffffffffffffffffff1690602001909291905050506120ad565b005b3480156104d157600080fd5b50610506600480360381019080803573ffffffffffffffffffffffffffffffffffffffff1690602001909291905050506121ba565b005b34801561051457600080fd5b50610549600480360381019080803573ffffffffffffffffffffffffffffffffffffffff1690602001909291905050506122c5565b6040518082815260200191505060405180910390f35b34801561056b57600080fd5b5061058e60048036038101908080356000191690602001909291905050506122dd565b604051808215151515815260200191505060405180910390f35b3480156105b457600080fd5b506105e9600480360381019080803573ffffffffffffffffffffffffffffffffffffffff169060200190929190505050612312565b6040518082815260200191505060405180910390f35b34801561060b57600080fd5b50610640600480360381019080803573ffffffffffffffffffffffffffffffffffffffff16906020019092919050505061235b565b604051808215151515815260200191505060405180910390f35b610662610806565b005b34801561067057600080fd5b506106a5600480360381019080803573ffffffffffffffffffffffffffffffffffffffff1690602001909291905050506123b4565b604051808215151515815260200191505060405180910390f35b3480156106cb57600080fd5b506106d461240d565b6040518080602001828103825283818151815260200191508051906020019060200280838360005b838110156107175780820151818401526020810190506106fc565b505050509050019250505060405180910390f35b34801561073757600080fd5b5061074061249b565b604051808215151515815260200191505060405180910390f35b34801561076657600080fd5b506107a96004803603810190808035600019169060200190929190803573ffffffffffffffffffffffffffffffffffffffff1690602001909291905050506124b2565b604051808215151515815260200191505060405180910390f35b3480156107cf57600080fd5b50610804600480360381019080803573ffffffffffffffffffffffffffffffffffffffff169060200190929190505050612631565b005b61080e61249b565b15156108a8576040517f08c379a00000000000000000000000000000000000000000000000000000000081526004018080602001828103825260258152602001807f436f6e74726163742069732063757272656e746c79206e6f74206f706572617481526020017f696f6e616c00000000000000000000000000000000000000000000000000000081525060400191505060405180910390fd5b565b6108b261249b565b151561094c576040517f08c379a00000000000000000000000000000000000000000000000000000000081526004018080602001828103825260258152602001807f436f6e74726163742069732063757272656e746c79206e6f74206f706572617481526020017f696f6e616c00000000000000000000000000000000000000000000000000000081525060400191505060405180910390fd5b6001600360003373ffffffffffffffffffffffffffffffffffffffff1673ffffffffffffffffffffffffffffffffffffffff16815260200190815260200160002054141515610a03576040517f08c379a000000000000000000000000000000000000000000000000000000000815260040180806020018281038252601a8152602001807f4e6f7420616e20617574686f72697a656420636f6e747261637400000000000081525060200191505060405180910390fd5b88600073ffffffffffffffffffffffffffffffffffffffff168173ffffffffffffffffffffffffffffffffffffffff1614151515610aa9576040517f08c379a00000000000000000000000000000000000000000000000000000000081526004018080602001828103825260178152602001807f7265717569726520612076616c6964206164647265737300000000000000000081525060200191505060405180910390fd5b893073ffffffffffffffffffffffffffffffffffffffff1663bf3c0d7a826040518263ffffffff167c0100000000000000000000000000000000000000000000000000000000028152600401808273ffffffffffffffffffffffffffffffffffffffff1673ffffffffffffffffffffffffffffffffffffffff168152602001915050602060405180830381600087803b158015610b4557600080fd5b505af1158015610b59573d6000803e3d6000fd5b505050506040513d6020811015610b6f57600080fd5b81019080805190602001909291905050501515610c1a576040517f08c379a000000000000000000000000000000000000000000000000000000000815260040180806020018281038252603a8152602001807f4f6e6c79206578697374696e6720616e642070616964206169726c696e65732081526020017f61726520616c6c6f77656420746f20706172746963697061746500000000000081525060400191505060405180910390fd5b60066000846000191660001916815260200190815260200160002060010160009054906101000a900460ff16151515610ce1576040517f08c379a00000000000000000000000000000000000000000000000000000000081526004018080602001828103825260238152602001807f4169726c696e65466c69676874206973207265676973746572656420616c726581526020017f616479000000000000000000000000000000000000000000000000000000000081525060400191505060405180910390fd5b60e0604051908101604052808b8b8080601f0160208091040260200160405190810160405280939291908181526020018383808284378201915050505050508152602001600115158152602001600060ff1681526020018581526020018c73ffffffffffffffffffffffffffffffffffffffff16815260200189898080601f016020809104026020016040519081016040528093929190818152602001838380828437820191505050505050815260200187878080601f0160208091040260200160405190810160405280939291908181526020018383808284378201915050505050508152506006600085600019166000191681526020019081526020016000206000820151816000019080519060200190610dff929190612e22565b5060208201518160010160006101000a81548160ff02191690831515021790555060408201518160010160016101000a81548160ff021916908360ff1602179055506060820151816002015560808201518160030160006101000a81548173ffffffffffffffffffffffffffffffffffffffff021916908373ffffffffffffffffffffffffffffffffffffffff16021790555060a0820151816004019080519060200190610eae929190612e22565b5060c0820151816005019080519060200190610ecb929190612e22565b5090505060078390806001815401808255809150509060018203906000526020600020016000909192909190915090600019169055507f89a9f03eebe04f13795943cbdfd1e43e6326841c8962dde05c51a48a54db56918b8b8b8b8b8b8b8b604051808973ffffffffffffffffffffffffffffffffffffffff1673ffffffffffffffffffffffffffffffffffffffff16815260200180602001806020018060200185815260200184810384528b8b82818152602001925080828437820191505084810383528989828181526020019250808284378201915050848103825287878281815260200192508082843782019150509b50505050505050505050505060405180910390a15050505050505050505050565b6000610fe961249b565b1515611083576040517f08c379a00000000000000000000000000000000000000000000000000000000081526004018080602001828103825260258152602001807f436f6e74726163742069732063757272656e746c79206e6f74206f706572617481526020017f696f6e616c00000000000000000000000000000000000000000000000000000081525060400191505060405180910390fd5b6001600360003373ffffffffffffffffffffffffffffffffffffffff1673ffffffffffffffffffffffffffffffffffffffff1681526020019081526020016000205414151561113a576040517f08c379a000000000000000000000000000000000000000000000000000000000815260040180806020018281038252601a8152602001807f4e6f7420616e20617574686f72697a656420636f6e747261637400000000000081525060200191505060405180910390fd5b816000600960008373ffffffffffffffffffffffffffffffffffffffff1673ffffffffffffffffffffffffffffffffffffffff16815260200190815260200160002054111515611218576040517f08c379a00000000000000000000000000000000000000000000000000000000081526004018080602001828103825260228152602001807f46756e64206973206e6f7420656e6f7567687420666f7220776974686472617781526020017f616c00000000000000000000000000000000000000000000000000000000000081525060400191505060405180910390fd5b600960008473ffffffffffffffffffffffffffffffffffffffff1673ffffffffffffffffffffffffffffffffffffffff1681526020019081526020016000205491506000600960008573ffffffffffffffffffffffffffffffffffffffff1673ffffffffffffffffffffffffffffffffffffffff168152602001908152602001600020819055508273ffffffffffffffffffffffffffffffffffffffff166108fc839081150290604051600060405180830381858888f193505050501580156112e5573d6000803e3d6000fd5b507fdfeacc538b4e5daa9b6f7bd5267be179488543805cd27e8022d2883a4dc847d78383604051808373ffffffffffffffffffffffffffffffffffffffff1673ffffffffffffffffffffffffffffffffffffffff1681526020018281526020019250505060405180910390a1505050565b600061136061249b565b15156113fa576040517f08c379a00000000000000000000000000000000000000000000000000000000081526004018080602001828103825260258152602001807f436f6e74726163742069732063757272656e746c79206e6f74206f706572617481526020017f696f6e616c00000000000000000000000000000000000000000000000000000081525060400191505060405180910390fd5b6001600360003373ffffffffffffffffffffffffffffffffffffffff1673ffffffffffffffffffffffffffffffffffffffff168152602001908152602001600020541415156114b1576040517f08c379a000000000000000000000000000000000000000000000000000000000815260040180806020018281038252601a8152602001807f4e6f7420616e20617574686f72697a656420636f6e747261637400000000000081525060200191505060405180910390fd5b81600073ffffffffffffffffffffffffffffffffffffffff168173ffffffffffffffffffffffffffffffffffffffff1614151515611557576040517f08c379a00000000000000000000000000000000000000000000000000000000081526004018080602001828103825260178152602001807f7265717569726520612076616c6964206164647265737300000000000000000081525060200191505060405180910390fd5b82600460008273ffffffffffffffffffffffffffffffffffffffff1673ffffffffffffffffffffffffffffffffffffffff16815260200190815260200160002060010160019054906101000a900460ff16151515611643576040517f08c379a00000000000000000000000000000000000000000000000000000000081526004018080602001828103825260238152602001807f4169726c696e652068617320616c7265616479206265656e207265676973746581526020017f726564000000000000000000000000000000000000000000000000000000000081525060400191505060405180910390fd5b60606040519081016040528087878080601f016020809104026020016040519081016040528093929190818152602001838380828437820191505050505050815260200160001515815260200160011515815250600460008673ffffffffffffffffffffffffffffffffffffffff1673ffffffffffffffffffffffffffffffffffffffff16815260200190815260200160002060008201518160000190805190602001906116f2929190612e22565b5060208201518160010160006101000a81548160ff02191690831515021790555060408201518160010160016101000a81548160ff02191690831515021790555090505060058490806001815401808255809150509060018203906000526020600020016000909192909190916101000a81548173ffffffffffffffffffffffffffffffffffffffff021916908373ffffffffffffffffffffffffffffffffffffffff160217905550506001925050509392505050565b6117b161249b565b151561184b576040517f08c379a00000000000000000000000000000000000000000000000000000000081526004018080602001828103825260258152602001807f436f6e74726163742069732063757272656e746c79206e6f74206f706572617481526020017f696f6e616c00000000000000000000000000000000000000000000000000000081525060400191505060405180910390fd5b6001600360003373ffffffffffffffffffffffffffffffffffffffff1673ffffffffffffffffffffffffffffffffffffffff16815260200190815260200160002054141515611902576040517f08c379a000000000000000000000000000000000000000000000000000000000815260040180806020018281038252601a8152602001807f4e6f7420616e20617574686f72697a656420636f6e747261637400000000000081525060200191505060405180910390fd5b600060ff1660066000846000191660001916815260200190815260200160002060010160019054906101000a900460ff1660ff16141561198d578060066000846000191660001916815260200190815260200160002060010160016101000a81548160ff021916908360ff160217905550601460ff168160ff16141561198c5761198b82612916565b5b5b5050565b60008060009150600090505b600280549050811015611a2d573373ffffffffffffffffffffffffffffffffffffffff166002828154811015156119d057fe5b9060005260206000200160009054906101000a900473ffffffffffffffffffffffffffffffffffffffff1673ffffffffffffffffffffffffffffffffffffffff161415611a205760019150611a2d565b808060010191505061199d565b81151515611ac9576040517f08c379a00000000000000000000000000000000000000000000000000000000081526004018080602001828103825260288152602001807f43616c6c65722068617320616c72656164792063616c6c65642074686973206681526020017f756e6374696f6e2e00000000000000000000000000000000000000000000000081525060400191505060405180910390fd5b82600160149054906101000a900460ff16151581151514151515611b55576040517f08c379a00000000000000000000000000000000000000000000000000000000081526004018080602001828103825260188152602001807f737461747573206d75737420626520646966666572656e74000000000000000081525060200191505060405180910390fd5b600160009054906101000a900473ffffffffffffffffffffffffffffffffffffffff1673ffffffffffffffffffffffffffffffffffffffff163373ffffffffffffffffffffffffffffffffffffffff16141515611c1a576040517f08c379a000000000000000000000000000000000000000000000000000000000815260040180806020018281038252601c8152602001807f43616c6c6572206973206e6f7420636f6e7472616374206f776e65720000000081525060200191505060405180910390fd5b60023390806001815401808255809150509060018203906000526020600020016000909192909190916101000a81548173ffffffffffffffffffffffffffffffffffffffff021916908373ffffffffffffffffffffffffffffffffffffffff160217905550506001600280549050101515611cf15783600160146101000a81548160ff0219169083151502179055506000604051908082528060200260200182016040528015611cd95781602001602082028038833980820191505090505b5060029080519060200190611cef929190612ea2565b505b50505050565b600060066000611d3a8787878080601f01602080910402602001604051908101604052809392919081815260200183838082843782019150505050505086612c95565b6000191660001916815260200190815260200160002060010160019054906101000a900460ff169050949350505050565b611d7361249b565b1515611e0d576040517f08c379a00000000000000000000000000000000000000000000000000000000081526004018080602001828103825260258152602001807f436f6e74726163742069732063757272656e746c79206e6f74206f706572617481526020017f696f6e616c00000000000000000000000000000000000000000000000000000081525060400191505060405180910390fd5b6001600360003373ffffffffffffffffffffffffffffffffffffffff1673ffffffffffffffffffffffffffffffffffffffff16815260200190815260200160002054141515611ec4576040517f08c379a000000000000000000000000000000000000000000000000000000000815260040180806020018281038252601a8152602001807f4e6f7420616e20617574686f72697a656420636f6e747261637400000000000081525060200191505060405180910390fd5b6008600085600019166000191681526020019081526020016000206080604051908101604052808573ffffffffffffffffffffffffffffffffffffffff168152602001848152602001838152602001600015158152509080600181540180825580915050906001820390600052602060002090600402016000909192909190915060008201518160000160006101000a81548173ffffffffffffffffffffffffffffffffffffffff021916908373ffffffffffffffffffffffffffffffffffffffff160217905550602082015181600101556040820151816002015560608201518160030160006101000a81548160ff02191690831515021790555050505050505050565b6060600460008373ffffffffffffffffffffffffffffffffffffffff1673ffffffffffffffffffffffffffffffffffffffff1681526020019081526020016000206000018054600181600116156101000203166002900480601f0160208091040260200160405190810160405280929190818152602001828054600181600116156101000203166002900480156120a15780601f10612076576101008083540402835291602001916120a1565b820191906000526020600020905b81548152906001019060200180831161208457829003601f168201915b50505050509050919050565b600160009054906101000a900473ffffffffffffffffffffffffffffffffffffffff1673ffffffffffffffffffffffffffffffffffffffff163373ffffffffffffffffffffffffffffffffffffffff16141515612172576040517f08c379a000000000000000000000000000000000000000000000000000000000815260040180806020018281038252601c8152602001807f43616c6c6572206973206e6f7420636f6e7472616374206f776e65720000000081525060200191505060405180910390fd5b6001600360008373ffffffffffffffffffffffffffffffffffffffff1673ffffffffffffffffffffffffffffffffffffffff1681526020019081526020016000208190555050565b600160009054906101000a900473ffffffffffffffffffffffffffffffffffffffff1673ffffffffffffffffffffffffffffffffffffffff163373ffffffffffffffffffffffffffffffffffffffff1614151561227f576040517f08c379a000000000000000000000000000000000000000000000000000000000815260040180806020018281038252601c8152602001807f43616c6c6572206973206e6f7420636f6e7472616374206f776e65720000000081525060200191505060405180910390fd5b600360008273ffffffffffffffffffffffffffffffffffffffff1673ffffffffffffffffffffffffffffffffffffffff1681526020019081526020016000206000905550565b60096020528060005260406000206000915090505481565b600060066000836000191660001916815260200190815260200160002060010160009054906101000a900460ff169050919050565b6000600960008373ffffffffffffffffffffffffffffffffffffffff1673ffffffffffffffffffffffffffffffffffffffff168152602001908152602001600020549050919050565b6000600460008373ffffffffffffffffffffffffffffffffffffffff1673ffffffffffffffffffffffffffffffffffffffff16815260200190815260200160002060010160019054906101000a900460ff169050919050565b6000600460008373ffffffffffffffffffffffffffffffffffffffff1673ffffffffffffffffffffffffffffffffffffffff16815260200190815260200160002060010160009054906101000a900460ff169050919050565b6060600580548060200260200160405190810160405280929190818152602001828054801561249157602002820191906000526020600020905b8160009054906101000a900473ffffffffffffffffffffffffffffffffffffffff1673ffffffffffffffffffffffffffffffffffffffff1681526020019060010190808311612447575b5050505050905090565b6000600160149054906101000a900460ff16905090565b600060606000600860008660001916600019168152602001908152602001600020805480602002602001604051908101604052809291908181526020016000905b828210156125ab5783829060005260206000209060040201608060405190810160405290816000820160009054906101000a900473ffffffffffffffffffffffffffffffffffffffff1673ffffffffffffffffffffffffffffffffffffffff1673ffffffffffffffffffffffffffffffffffffffff16815260200160018201548152602001600282015481526020016003820160009054906101000a900460ff161515151581525050815260200190600101906124f3565b505050509150600090505b8151811015612624578373ffffffffffffffffffffffffffffffffffffffff1682828151811015156125e457fe5b906020019060200201516000015173ffffffffffffffffffffffffffffffffffffffff1614156126175760019250612629565b80806001019150506125b6565b600092505b505092915050565b61263961249b565b15156126d3576040517f08c379a00000000000000000000000000000000000000000000000000000000081526004018080602001828103825260258152602001807f436f6e74726163742069732063757272656e746c79206e6f74206f706572617481526020017f696f6e616c00000000000000000000000000000000000000000000000000000081525060400191505060405180910390fd5b6001600360003373ffffffffffffffffffffffffffffffffffffffff1673ffffffffffffffffffffffffffffffffffffffff1681526020019081526020016000205414151561278a576040517f08c379a000000000000000000000000000000000000000000000000000000000815260040180806020018281038252601a8152602001807f4e6f7420616e20617574686f72697a656420636f6e747261637400000000000081525060200191505060405180910390fd5b6001600460008373ffffffffffffffffffffffffffffffffffffffff1673ffffffffffffffffffffffffffffffffffffffff16815260200190815260200160002060010160006101000a81548160ff0219169083151502179055507f9a2d81d28111af1887d9d96ea1698bd62c32fe1fd1636068e25c41b596fd6f0e600460008373ffffffffffffffffffffffffffffffffffffffff1673ffffffffffffffffffffffffffffffffffffffff1681526020019081526020016000206000018260405180806020018373ffffffffffffffffffffffffffffffffffffffff1673ffffffffffffffffffffffffffffffffffffffff1681526020018281038252848181546001816001161561010002031660029004815260200191508054600181600116156101000203166002900480156129045780601f106128d957610100808354040283529160200191612904565b820191906000526020600020905b8154815290600101906020018083116128e757829003601f168201915b5050935050505060405180910390a150565b6000612920612f2c565b600061292a61249b565b15156129c4576040517f08c379a00000000000000000000000000000000000000000000000000000000081526004018080602001828103825260258152602001807f436f6e74726163742069732063757272656e746c79206e6f74206f706572617481526020017f696f6e616c00000000000000000000000000000000000000000000000000000081525060400191505060405180910390fd5b6001600360003373ffffffffffffffffffffffffffffffffffffffff1673ffffffffffffffffffffffffffffffffffffffff16815260200190815260200160002054141515612a7b576040517f08c379a000000000000000000000000000000000000000000000000000000000815260040180806020018281038252601a8152602001807f4e6f7420616e20617574686f72697a656420636f6e747261637400000000000081525060200191505060405180910390fd5b600092505b60086000856000191660001916815260200190815260200160002080549050831015612c8f5760086000856000191660001916815260200190815260200160002083815481101515612ace57fe5b9060005260206000209060040201608060405190810160405290816000820160009054906101000a900473ffffffffffffffffffffffffffffffffffffffff1673ffffffffffffffffffffffffffffffffffffffff1673ffffffffffffffffffffffffffffffffffffffff16815260200160018201548152602001600282015481526020016003820160009054906101000a900460ff161515151581525050915060001515826060015115151415612c82576001826060019015159081151581525050612bbf6064612bb184604001518560200151612dba90919063ffffffff16565b612df890919063ffffffff16565b90508060096000846000015173ffffffffffffffffffffffffffffffffffffffff1673ffffffffffffffffffffffffffffffffffffffff168152602001908152602001600020600082825401925050819055507f868591bb2b953c2ab9230c3d982fc24b5b255e5d8d9bcd0c1a5e6ad5cddccab6826000015182604051808373ffffffffffffffffffffffffffffffffffffffff1673ffffffffffffffffffffffffffffffffffffffff1681526020018281526020019250505060405180910390a15b8280600101935050612a80565b50505050565b6000838383604051602001808473ffffffffffffffffffffffffffffffffffffffff1673ffffffffffffffffffffffffffffffffffffffff166c0100000000000000000000000002815260140183805190602001908083835b602083101515612d135780518252602082019150602081019050602083039250612cee565b6001836020036101000a03801982511681845116808217855250505050505090500182815260200193505050506040516020818303038152906040526040518082805190602001908083835b602083101515612d845780518252602082019150602081019050602083039250612d5f565b6001836020036101000a038019825116818451168082178552505050505050905001915050604051809103902090509392505050565b6000806000841415612dcf5760009150612df1565b8284029050828482811515612de057fe5b04141515612ded57600080fd5b8091505b5092915050565b600080600083111515612e0a57600080fd5b8284811515612e1557fe5b0490508091505092915050565b828054600181600116156101000203166002900490600052602060002090601f016020900481019282601f10612e6357805160ff1916838001178555612e91565b82800160010185558215612e91579182015b82811115612e90578251825591602001919060010190612e75565b5b509050612e9e9190612f6d565b5090565b828054828255906000526020600020908101928215612f1b579160200282015b82811115612f1a5782518260006101000a81548173ffffffffffffffffffffffffffffffffffffffff021916908373ffffffffffffffffffffffffffffffffffffffff16021790555091602001919060010190612ec2565b5b509050612f289190612f92565b5090565b608060405190810160405280600073ffffffffffffffffffffffffffffffffffffffff16815260200160008152602001600081526020016000151581525090565b612f8f91905b80821115612f8b576000816000905550600101612f73565b5090565b90565b612fd291905b80821115612fce57600081816101000a81549073ffffffffffffffffffffffffffffffffffffffff021916905550600101612f98565b5090565b905600a165627a7a723058200d6c455a13f3bbcd1ad4705ab69bb3441806e906efc4153003c70f6fc5a7624e0029",
  "source": "pragma solidity ^0.4.24;\n\nimport \"../node_modules/openzeppelin-solidity/contracts/math/SafeMath.sol\";\n\ncontract FlightSuretyData {\n  using SafeMath for uint256;\n\n  /********************************************************************************************/\n  /*                                       DATA VARIABLES                                     */\n  /********************************************************************************************/\nuint256 private enabled = block.timestamp;\n  // Account used to deploy contract\n  address private contractOwner;\n  uint8 private constant STATUS_CODE_LATE = 20;\n  uint8 private constant STATUS_CODE_UNKNOWN = 0;\n  uint constant MULTI_CONSENSUS_COUNT = 1;\n\n\n  // Blocks all state changes throughout the contract if false                                    \n  bool private operational = true;  \n    address[] multiConsensus = new address[](0);\n\n  // Restrict data contract callers\n  mapping(address => uint256) private authorizedContracts;\n\n// Flights\n  struct AirlineFlight {\n    string flight;\n    bool isRegistered;\n    uint8 statusCode; \n    uint256 flightTimeStamp;\n    address airline;    \n    string from;\n    string to;\n  }\n\n\n  // Airlines\n  struct Airline {\n    string name;\n    bool hasPaid;\n    bool isRegistered;\n  }\n  mapping(address => Airline) private airlines;\n  address[] registeredAirlines = new address[](0);\n\n  \n  mapping(bytes32 => AirlineFlight) private flights;\n  bytes32[] registeredFlights = new bytes32[](0);\n\n  struct Insurance \n  {    \n    address passenger;\n    uint256 amount; \n    uint256 multiplier; \n    bool isCredited;\n  }\n  \n  mapping (bytes32 => Insurance[]) passengersInsurancePerFlight;  \n  mapping (address => uint) public pendingPayments;\n\n  /********************************************************************************************/\n  /*                                       CONSTRUCTOR                                        */\n  /********************************************************************************************/\n\n  /**\n  * @dev Constructor\n  *      The deploying account becomes contractOwner\n  */\n  constructor(string memory firstAirlineName, address firstAirlineAddress) public {\n    \n    contractOwner = msg.sender;\n  \n    // First airline initialization\n    airlines[firstAirlineAddress] = Airline({\n      name: firstAirlineName,\n      hasPaid: false, \n      isRegistered: true\n    });\n\n    //push to the array\n    registeredAirlines.push(firstAirlineAddress);\n  }\n\n  function deauthorizeContract(address contractAddress) external requireContractOwner {\n    delete authorizedContracts[contractAddress];\n  }\n\n    function authorizeContract(address contractAddress) external requireContractOwner {\n    authorizedContracts[contractAddress] = 1;\n  }\n\n  /********************************************************************************************/\n  /*                                       MODIFIERS                                 */\n  /********************************************************************************************/\n  \n  modifier requireIsOperational() {\n    require(isOperational(), \"Contract is currently not operational\");\n    _;  \n  }\n\n  /**\n   * @dev Modifier that requires the \"ContractOwner\" account to be the function caller\n   */\n  modifier requireContractOwner() {\n    require(msg.sender == contractOwner, \"Caller is not contract owner\");\n    _;\n  }\n\n  /**\n   * @dev Modifier that requires airline to be paid\n   */\n  modifier requireHasAirlinePaid(address airline) {\n    require(this.isPaidAirline(airline), \"Only existing and paid airlines are allowed to participate\");\n    _;\n  }\n  \n  /**\n   * @dev Modifier that requires function caller to be authorized\n   */\n  modifier requireIsContractAuthorized() {\n    require(authorizedContracts[msg.sender] == 1, \"Not an authorized contract\");\n    _;\n  }  \n\n\n  /**\n   * @dev Modifier that requires address to be valid\n   */\n  modifier requireValidAddress(address addr) {\n    require(addr != address(0), \"require a valid address\");\n    _;\n  }\n\n  modifier requireIsAirlineRegistered(address addr)\n  {\n    require(!airlines[addr].isRegistered, \"Airline has already been registered\");\n    _;\n  }\n\nmodifier requirePendingPaymentAmount(address passenger)\n{\n    require(pendingPayments[passenger] > 0, \"Fund is not enought for withdrawal\");\n    _;\n}\n  \n  \nmodifier isNewStatus(bool status)\n{\n  require(status != operational, \"status must be different\");\n  _;\n}\n\nmodifier isDupCall()\n{\n   bool isDuplicate = false;\n\n    for(uint i = 0; i < multiConsensus.length; i++) \n    {\n      if (multiConsensus[i] == msg.sender) \n      {\n        isDuplicate = true;\n        break;\n      }\n    }\n\n    require(!isDuplicate, \"Caller has already called this function.\");\n    _;\n}\n\n  /********************************************************************************************/\n  /*                                       EVENT DEFINITIONS                                  */\n  /********************************************************************************************/\n\n  event AirlinePaid(string name, address addr);\n  event AirlineRegistered(string name, address addr);\n  event InsureeCredited(address passenger, uint256 amount);\n  event InsuranceBought(address airline, string flight, uint256 timestamp, address passenger, uint256 amount, uint256 multiplier);\n  event FlightStatusUpdated(address airline, string flight, uint256 timestamp, uint8 statusCode);  \n  event AccountWithdrawn(address passenger, uint256 amount);\n  event FlightRegistered(address airline, string flight, string from, string to, uint256 timestamp);\n\n  /********************************************************************************************/\n  /*                                       UTILITY FUNCTIONS                                  */\n  /********************************************************************************************/\n\n  function isOperational() public view returns(bool) {\n    return operational;\n  }\n\n\n  function getAirlineName(address airline) external view returns(string memory) {\n    return airlines[airline].name;\n  }\n\n\n  function isRegisteredAirline(address airline) external view returns(bool) {\n    return airlines[airline].isRegistered;\n  }\n\n\n  function isPaidAirline(address airline) external view returns(bool) {\n    return airlines[airline].hasPaid;\n  }\n\n\n  function getFlightStatusCode(address airline, string flight, uint256 timestamp) external view returns(uint8) {\n    return flights[getFlightKey(airline, flight, timestamp)].statusCode;\n  }\n\n  function getRegisteredAirlines() external view returns(address[] memory) {\n    return registeredAirlines;\n  }\n\n function isInsured(bytes32 key, address passenger) external view returns (bool) \n {\n    Insurance[] memory insuredPassengers = passengersInsurancePerFlight[key];\n    \n    for(uint i = 0; i < insuredPassengers.length; i++) \n    {\n      if (insuredPassengers[i].passenger == passenger) \n      {\n        return true;\n      }\n    }\n\n    return false;\n  }\n\n  \n  function isRegisteredFlight(bytes32 key) external view returns(bool) \n  {\n    return flights[key].isRegistered;\n  }  \n\n\n  /**\n   * @dev Return the pending payment\n   */\n  function getPendingPaymentAmount(address passenger) external view returns (uint256) {\n    return pendingPayments[passenger];\n  }\n\n\n  function setOperatingStatus(bool status) \n    isDupCall\n    isNewStatus(status)\n    requireContractOwner \n    external \n  {    \n    multiConsensus.push(msg.sender);\n\n    if (multiConsensus.length >= MULTI_CONSENSUS_COUNT) \n    {\n      operational = status;\n      multiConsensus = new address[](0);\n    }\n  }\n\n\n  \n\n\n  /********************************************************************************************/\n  /*                                     SMART CONTRACT FUNCTIONS                             */\n  /********************************************************************************************/\n\n  /**\n   * @dev Add an airline to the registration queue\n   *      Can only be called from FlightSuretyApp contract\n   */\n  function registerAirline(string  name, address addr) external \n  requireIsOperational \n  requireIsContractAuthorized \n  requireValidAddress(addr) \n  requireIsAirlineRegistered(addr)\n  returns(bool success) \n  {\n    airlines[addr] = Airline({\n      name: name,\n      hasPaid: false, \n      isRegistered: true\n    });\n\n    registeredAirlines.push(addr);\n    return true;    \n  }\n\n  /**\n   * @dev Submit funding for airline\n   */   \n  function payAirline(address addr) external requireIsOperational requireIsContractAuthorized {\n    airlines[addr].hasPaid = true;\n    emit AirlinePaid(airlines[addr].name, addr);\n  }\n\n  /**\n   * @dev Register a flight\n   */\n  function registerFlight(address airline, string  flight, string  from, string  to, uint256 timestamp, bytes32 key) \n  external requireIsOperational \n  requireIsContractAuthorized \n  requireValidAddress(airline) \n  requireHasAirlinePaid(airline) \n  {\n  \n  require(!flights[key].isRegistered, \"AirlineFlight is registered already\");\n\n    flights[key] = AirlineFlight({\n      isRegistered: true,      \n      airline: airline,\n      flight: flight,\n      statusCode: 0,\n      flightTimeStamp: timestamp,\n      from: from,\n      to: to\n    });\n\n    registeredFlights.push(key);\n\n    emit FlightRegistered(airline, flight, from, to, timestamp);\n  }\n\n  \n  /**\n   * @dev Buy insurance for a flight\n   */   \n  function purchase(bytes32 key, address passenger, uint256 amount, uint256 multiplier) external requireIsOperational requireIsContractAuthorized {   \n\n    passengersInsurancePerFlight[key].push(Insurance({\n      isCredited: false,\n      amount: amount,\n      multiplier: multiplier,\n      passenger: passenger    \n    }));\n  }\n\n  /**\n   * @dev Credits payouts to insurees\n   */\n  function payInsureeBack(bytes32 flightKey) \n  internal \n  requireIsOperational \n  requireIsContractAuthorized {\n\n    for (uint index = 0; index < passengersInsurancePerFlight[flightKey].length; index++) \n    {\n      Insurance memory insurance = passengersInsurancePerFlight[flightKey][index];\n\n      if (insurance.isCredited == false) {\n        insurance.isCredited = true;        \n        uint256 amount = insurance.amount.mul(insurance.multiplier).div(100);               \n        pendingPayments[insurance.passenger] += amount;\n        emit InsureeCredited(insurance.passenger, amount);\n      }\n    }\n  }\n\n  \n  function processFlightStatus(bytes32 flightKey, uint8 statusCode) external requireIsOperational requireIsContractAuthorized {    \n    if (flights[flightKey].statusCode == STATUS_CODE_UNKNOWN) {\n      flights[flightKey].statusCode = statusCode;\n\n      if(statusCode == STATUS_CODE_LATE) \n      {\n        payInsureeBack(flightKey);\n      }\n    }\n  }\n\n\n  /**\n   * @dev Transfers eligible payout funds to insuree\n   */\n\n  function pay(address passenger) \n  external \n  requireIsOperational \n  requireIsContractAuthorized \n  requirePendingPaymentAmount(passenger)\n  {    \n    uint256 amount = pendingPayments[passenger];\n    pendingPayments[passenger] = 0;\n    address(uint160(passenger)).transfer(amount);\n    emit AccountWithdrawn(passenger, amount);\n  }\n\n  function getFlightKey(address airline, string memory flight, uint256 timestamp) pure internal returns(bytes32) {\n    return keccak256(abi.encodePacked(airline, flight, timestamp));\n  }\n  \n  function fund() public payable requireIsOperational {\n  }\n\n\n  /**\n   * @dev Fallback function for funding smart contract.\n   */\n  function() external payable {\n    fund();\n  }\n}",
  "sourcePath": "C:\\Project\\FlightSurety\\contracts\\FlightSuretyData.sol",
  "compiler": {
    "name": "solc",
    "version": "0.4.26+commit.4563c3fc.Emscripten.clang"
  },
  "schemaVersion": "3.4.3",
  "updatedAt": "2021-09-29T19:51:06.925Z",
  "devdoc": {
    "methods": {
      "getPendingPaymentAmount(address)": {
        "details": "Return the pending payment"
      },
      "pay(address)": {
        "details": "Transfers eligible payout funds to insuree"
      },
      "payAirline(address)": {
        "details": "Submit funding for airline"
      },
      "purchase(bytes32,address,uint256,uint256)": {
        "details": "Buy insurance for a flight"
      },
      "registerAirline(string,address)": {
        "details": "Add an airline to the registration queue     Can only be called from FlightSuretyApp contract"
      },
      "registerFlight(address,string,string,string,uint256,bytes32)": {
        "details": "Register a flight"
      }
    }
  },
  "userdoc": {
    "methods": {
      "isOperational()": {
        "notice": "*****************************************************************************************"
      }
    }
  }
}